{
  "contractName": "DeFiCompound",
  "abi": [
    {
      "inputs": [
        {
          "internalType": "address",
          "name": "_comptroller",
          "type": "address"
        },
        {
          "internalType": "address",
          "name": "_priceOracle",
          "type": "address"
        }
      ],
      "stateMutability": "nonpayable",
      "type": "constructor"
    },
    {
      "inputs": [],
      "name": "comptroller",
      "outputs": [
        {
          "internalType": "contract IComptroller",
          "name": "",
          "type": "address"
        }
      ],
      "stateMutability": "view",
      "type": "function"
    },
    {
      "inputs": [],
      "name": "priceOracle",
      "outputs": [
        {
          "internalType": "contract IPriceOracle",
          "name": "",
          "type": "address"
        }
      ],
      "stateMutability": "view",
      "type": "function"
    },
    {
      "inputs": [
        {
          "internalType": "address",
          "name": "_cToken",
          "type": "address"
        },
        {
          "internalType": "uint256",
          "name": "_amountUnderlying",
          "type": "uint256"
        }
      ],
      "name": "supply",
      "outputs": [],
      "stateMutability": "nonpayable",
      "type": "function"
    },
    {
      "inputs": [
        {
          "internalType": "address",
          "name": "_cToken",
          "type": "address"
        },
        {
          "internalType": "uint256",
          "name": "_amountCToken",
          "type": "uint256"
        }
      ],
      "name": "redeem",
      "outputs": [],
      "stateMutability": "nonpayable",
      "type": "function"
    },
    {
      "inputs": [
        {
          "internalType": "address",
          "name": "_cToken",
          "type": "address"
        }
      ],
      "name": "enterMarket",
      "outputs": [],
      "stateMutability": "nonpayable",
      "type": "function"
    },
    {
      "inputs": [
        {
          "internalType": "address",
          "name": "_cToken",
          "type": "address"
        },
        {
          "internalType": "uint256",
          "name": "_borrowAmount",
          "type": "uint256"
        }
      ],
      "name": "borrow",
      "outputs": [],
      "stateMutability": "nonpayable",
      "type": "function"
    },
    {
      "inputs": [
        {
          "internalType": "address",
          "name": "_cToken",
          "type": "address"
        },
        {
          "internalType": "uint256",
          "name": "_underlyingAmount",
          "type": "uint256"
        }
      ],
      "name": "repayBorrow",
      "outputs": [],
      "stateMutability": "nonpayable",
      "type": "function"
    },
    {
      "inputs": [
        {
          "internalType": "address",
          "name": "_cToken",
          "type": "address"
        }
      ],
      "name": "getMaxBorrow",
      "outputs": [
        {
          "internalType": "uint256",
          "name": "_amountMax",
          "type": "uint256"
        }
      ],
      "stateMutability": "view",
      "type": "function"
    }
  ],
  "bytecode": "0x60806040523480156200001157600080fd5b50604051620017b9380380620017b98339818101604052810190620000379190620000d7565b816000806101000a81548173ffffffffffffffffffffffffffffffffffffffff021916908373ffffffffffffffffffffffffffffffffffffffff16021790555080600160006101000a81548173ffffffffffffffffffffffffffffffffffffffff021916908373ffffffffffffffffffffffffffffffffffffffff160217905550505062000166565b600081519050620000d1816200014c565b92915050565b60008060408385031215620000eb57600080fd5b6000620000fb85828601620000c0565b92505060206200010e85828601620000c0565b9150509250929050565b600062000125826200012c565b9050919050565b600073ffffffffffffffffffffffffffffffffffffffff82169050919050565b620001578162000118565b81146200016357600080fd5b50565b61164380620001766000396000f3fe608060405234801561001057600080fd5b50600436106100885760003560e01c80635fe3b5671161005b5780635fe3b567146100ff578063abdb5ea81461011d578063f2b9fdb814610139578063fd1c317a1461015557610088565b80631e9a69501461008d5780632630c12f146100a95780633fe5d425146100c75780634b8a3529146100e3575b600080fd5b6100a760048036038101906100a29190610da4565b610185565b005b6100b1610262565b6040516100be91906110d6565b60405180910390f35b6100e160048036038101906100dc9190610d52565b610288565b005b6100fd60048036038101906100f89190610da4565b6104af565b005b61010761060f565b60405161011491906110bb565b60405180910390f35b61013760048036038101906101329190610da4565b610633565b005b610153600480360381019061014e9190610da4565b610821565b005b61016f600480360381019061016a9190610d52565b610a0f565b60405161017c91906111b1565b60405180910390f35b600082905060008173ffffffffffffffffffffffffffffffffffffffff1663db006a75846040518263ffffffff1660e01b81526004016101c591906111b1565b602060405180830381600087803b1580156101df57600080fd5b505af11580156101f3573d6000803e3d6000fd5b505050506040513d601f19601f820116820180604052508101906102179190610e4a565b90506000811461025c576040517f08c379a000000000000000000000000000000000000000000000000000000000815260040161025390611111565b60405180910390fd5b50505050565b600160009054906101000a900473ffffffffffffffffffffffffffffffffffffffff1681565b6000600167ffffffffffffffff8111156102cb577f4e487b7100000000000000000000000000000000000000000000000000000000600052604160045260246000fd5b6040519080825280602002602001820160405280156102f95781602001602082028036833780820191505090505b5090508181600081518110610337577f4e487b7100000000000000000000000000000000000000000000000000000000600052603260045260246000fd5b602002602001019073ffffffffffffffffffffffffffffffffffffffff16908173ffffffffffffffffffffffffffffffffffffffff168152505060008060009054906101000a900473ffffffffffffffffffffffffffffffffffffffff1673ffffffffffffffffffffffffffffffffffffffff1663c2998238836040518263ffffffff1660e01b81526004016103cd9190611099565b600060405180830381600087803b1580156103e757600080fd5b505af11580156103fb573d6000803e3d6000fd5b505050506040513d6000823e3d601f19601f820116820180604052508101906104249190610de0565b9050600081600081518110610462577f4e487b7100000000000000000000000000000000000000000000000000000000600052603260045260246000fd5b6020026020010151146104aa576040517f08c379a00000000000000000000000000000000000000000000000000000000081526004016104a190611131565b60405180910390fd5b505050565b600082905060008173ffffffffffffffffffffffffffffffffffffffff16636f307dc36040518163ffffffff1660e01b815260040160206040518083038186803b1580156104fc57600080fd5b505afa158015610510573d6000803e3d6000fd5b505050506040513d601f19601f820116820180604052508101906105349190610d7b565b905060008273ffffffffffffffffffffffffffffffffffffffff1663c5ebeaec856040518263ffffffff1660e01b815260040161057191906111b1565b602060405180830381600087803b15801561058b57600080fd5b505af115801561059f573d6000803e3d6000fd5b505050506040513d601f19601f820116820180604052508101906105c39190610e4a565b905060008114610608576040517f08c379a00000000000000000000000000000000000000000000000000000000081526004016105ff90611171565b60405180910390fd5b5050505050565b60008054906101000a900473ffffffffffffffffffffffffffffffffffffffff1681565b600082905060008173ffffffffffffffffffffffffffffffffffffffff16636f307dc36040518163ffffffff1660e01b815260040160206040518083038186803b15801561068057600080fd5b505afa158015610694573d6000803e3d6000fd5b505050506040513d601f19601f820116820180604052508101906106b89190610d7b565b90508073ffffffffffffffffffffffffffffffffffffffff1663095ea7b385856040518363ffffffff1660e01b81526004016106f5929190611070565b602060405180830381600087803b15801561070f57600080fd5b505af1158015610723573d6000803e3d6000fd5b505050506040513d601f19601f820116820180604052508101906107479190610e21565b5060008273ffffffffffffffffffffffffffffffffffffffff16630e752702856040518263ffffffff1660e01b815260040161078391906111b1565b602060405180830381600087803b15801561079d57600080fd5b505af11580156107b1573d6000803e3d6000fd5b505050506040513d601f19601f820116820180604052508101906107d59190610e4a565b90506000811461081a576040517f08c379a000000000000000000000000000000000000000000000000000000000815260040161081190611171565b60405180910390fd5b5050505050565b600082905060008173ffffffffffffffffffffffffffffffffffffffff16636f307dc36040518163ffffffff1660e01b815260040160206040518083038186803b15801561086e57600080fd5b505afa158015610882573d6000803e3d6000fd5b505050506040513d601f19601f820116820180604052508101906108a69190610d7b565b90508073ffffffffffffffffffffffffffffffffffffffff1663095ea7b385856040518363ffffffff1660e01b81526004016108e3929190611070565b602060405180830381600087803b1580156108fd57600080fd5b505af1158015610911573d6000803e3d6000fd5b505050506040513d601f19601f820116820180604052508101906109359190610e21565b5060008273ffffffffffffffffffffffffffffffffffffffff1663a0712d68856040518263ffffffff1660e01b815260040161097191906111b1565b602060405180830381600087803b15801561098b57600080fd5b505af115801561099f573d6000803e3d6000fd5b505050506040513d601f19601f820116820180604052508101906109c39190610e4a565b905060008114610a08576040517f08c379a00000000000000000000000000000000000000000000000000000000081526004016109ff90611111565b60405180910390fd5b5050505050565b60008060008060008054906101000a900473ffffffffffffffffffffffffffffffffffffffff1673ffffffffffffffffffffffffffffffffffffffff16635ec88c79306040518263ffffffff1660e01b8152600401610a6e9190611055565b60606040518083038186803b158015610a8657600080fd5b505afa158015610a9a573d6000803e3d6000fd5b505050506040513d601f19601f82011682018060405250810190610abe9190610e73565b92509250925060008314610b07576040517f08c379a0000000000000000000000000000000000000000000000000000000008152600401610afe906110f1565b60405180910390fd5b60008114610b4a576040517f08c379a0000000000000000000000000000000000000000000000000000000008152600401610b4190611191565b60405180910390fd5b60008211610b8d576040517f08c379a0000000000000000000000000000000000000000000000000000000008152600401610b8490611151565b60405180910390fd5b6000600160009054906101000a900473ffffffffffffffffffffffffffffffffffffffff1673ffffffffffffffffffffffffffffffffffffffff1663fc57d4df876040518263ffffffff1660e01b8152600401610bea9190611055565b60206040518083038186803b158015610c0257600080fd5b505afa158015610c16573d6000803e3d6000fd5b505050506040513d601f19601f82011682018060405250810190610c3a9190610e4a565b90508083610c489190611267565b945050505050919050565b6000610c66610c61846111f1565b6111cc565b90508083825260208201905082856020860282011115610c8557600080fd5b60005b85811015610cb55781610c9b8882610d3d565b845260208401935060208301925050600181019050610c88565b5050509392505050565b600081359050610cce816115c8565b92915050565b600081519050610ce3816115c8565b92915050565b600082601f830112610cfa57600080fd5b8151610d0a848260208601610c53565b91505092915050565b600081519050610d22816115df565b92915050565b600081359050610d37816115f6565b92915050565b600081519050610d4c816115f6565b92915050565b600060208284031215610d6457600080fd5b6000610d7284828501610cbf565b91505092915050565b600060208284031215610d8d57600080fd5b6000610d9b84828501610cd4565b91505092915050565b60008060408385031215610db757600080fd5b6000610dc585828601610cbf565b9250506020610dd685828601610d28565b9150509250929050565b600060208284031215610df257600080fd5b600082015167ffffffffffffffff811115610e0c57600080fd5b610e1884828501610ce9565b91505092915050565b600060208284031215610e3357600080fd5b6000610e4184828501610d13565b91505092915050565b600060208284031215610e5c57600080fd5b6000610e6a84828501610d3d565b91505092915050565b600080600060608486031215610e8857600080fd5b6000610e9686828701610d3d565b9350506020610ea786828701610d3d565b9250506040610eb886828701610d3d565b9150509250925092565b6000610ece8383610eda565b60208301905092915050565b610ee381611298565b82525050565b610ef281611298565b82525050565b6000610f038261122d565b610f0d8185611245565b9350610f188361121d565b8060005b83811015610f49578151610f308882610ec2565b9750610f3b83611238565b925050600181019050610f1c565b5085935050505092915050565b610f5f816112e0565b82525050565b610f6e81611304565b82525050565b6000610f81605483611256565b9150610f8c826113c8565b606082019050919050565b6000610fa4603283611256565b9150610faf8261143d565b604082019050919050565b6000610fc7604c83611256565b9150610fd28261148c565b606082019050919050565b6000610fea602083611256565b9150610ff582611501565b602082019050919050565b600061100d604283611256565b91506110188261152a565b606082019050919050565b6000611030601283611256565b915061103b8261159f565b602082019050919050565b61104f816112d6565b82525050565b600060208201905061106a6000830184610ee9565b92915050565b60006040820190506110856000830185610ee9565b6110926020830184611046565b9392505050565b600060208201905081810360008301526110b38184610ef8565b905092915050565b60006020820190506110d06000830184610f56565b92915050565b60006020820190506110eb6000830184610f65565b92915050565b6000602082019050818103600083015261110a81610f74565b9050919050565b6000602082019050818103600083015261112a81610f97565b9050919050565b6000602082019050818103600083015261114a81610fba565b9050919050565b6000602082019050818103600083015261116a81610fdd565b9050919050565b6000602082019050818103600083015261118a81611000565b9050919050565b600060208201905081810360008301526111aa81611023565b9050919050565b60006020820190506111c66000830184611046565b92915050565b60006111d66111e7565b90506111e28282611328565b919050565b6000604051905090565b600067ffffffffffffffff82111561120c5761120b611388565b5b602082029050602081019050919050565b6000819050602082019050919050565b600081519050919050565b6000602082019050919050565b600082825260208201905092915050565b600082825260208201905092915050565b6000611272826112d6565b915061127d836112d6565b92508261128d5761128c611359565b5b828204905092915050565b60006112a3826112b6565b9050919050565b60008115159050919050565b600073ffffffffffffffffffffffffffffffffffffffff82169050919050565b6000819050919050565b60006112eb826112f2565b9050919050565b60006112fd826112b6565b9050919050565b600061130f82611316565b9050919050565b6000611321826112b6565b9050919050565b611331826113b7565b810181811067ffffffffffffffff821117156113505761134f611388565b5b80604052505050565b7f4e487b7100000000000000000000000000000000000000000000000000000000600052601260045260246000fd5b7f4e487b7100000000000000000000000000000000000000000000000000000000600052604160045260246000fd5b6000601f19601f8301169050919050565b7f636f6d7074726f6c6c6572236765744163636f756e744c69717569646974792860008201527f29206661696c65642e2073656520436f6d706f756e64204572726f725265706f60208201527f727465722e736f6c20666f722064657461696c73000000000000000000000000604082015250565b7f63546f6b656e206d696e74696e67206661696c6564202d3e2064657461696c7360008201527f204572726f725265706f727465722e736f6c0000000000000000000000000000602082015250565b7f636f6d7074726f6c6c657223656e7465724d61726b65742829206661696c656460008201527f2e2073656520436f6d706f756e64204572726f725265706f727465722e736f6c60208201527f20666f722064657461696c730000000000000000000000000000000000000000604082015250565b7f6163636f756e7420646f6573206e6f74206861766520636f6c6c61746572616c600082015250565b7f63546f6b656e23626f72726f772829206661696c65642e2073656520436f6d7060008201527f6f756e64204572726f725265706f727465722e736f6c20666f7220646574616960208201527f6c73000000000000000000000000000000000000000000000000000000000000604082015250565b7f6163636f756e7420756e64657277617465720000000000000000000000000000600082015250565b6115d181611298565b81146115dc57600080fd5b50565b6115e8816112aa565b81146115f357600080fd5b50565b6115ff816112d6565b811461160a57600080fd5b5056fea26469706673582212200eb6235ea229eee9e9ce7d7967d99c434d9fcee4c5f4ed24c19d41d21e9a9f1f64736f6c63430008040033",
  "immutableReferences": {},
  "source": "// SPDX-License-Identifier: MIT\npragma solidity ^0.8.0;\n\nimport '@openzeppelin/contracts/token/ERC20/IERC20.sol';\nimport './IPriceOracle.sol';\nimport './IComptroller.sol';\nimport './ICToken.sol';\n\ncontract DeFiCompound {\n\n    // references to the Compotroller and PriceOracle\n    IComptroller public comptroller;\n    IPriceOracle public priceOracle;\n\n    constructor(address _comptroller, address _priceOracle) {\n        comptroller = IComptroller(_comptroller);\n        priceOracle = IPriceOracle(_priceOracle);\n    }\n\n    /// @notice function to lend money to protocol \n    /// @param _cToken the address of market to lend eg cDAI\n    /// @param _amountUnderlying the amount of tokens to lend\n    function supply(address _cToken, uint _amountUnderlying) external {\n        ICToken cToken = ICToken(_cToken);\n        address underlying = cToken.underlying();\n        // approve underlying token to be spent by compound (cToken market)\n        IERC20(underlying).approve(_cToken, _amountUnderlying);\n        // give cTokens to lender\n        uint success = cToken.mint(_amountUnderlying);\n        require(success == 0, 'cToken minting failed -> details ErrorReporter.sol');\n    }\n\n    /// @notice function to redeem underlying by sending back cToken\n    /// @param _cToken the address of market to lend eg cDAI\n    /// @param _amountCToken the amount of cTokens to redeem\n    function redeem(address _cToken, uint _amountCToken) external {\n        ICToken cToken = ICToken(_cToken);\n        // can use redeem() or redeemUnderlying() functions\n        uint success = cToken.redeem(_amountCToken);\n        require(success == 0, 'cToken minting failed -> details ErrorReporter.sol');\n    }\n\n    /// @notice function to enter a list of markets \n    /// @param _cToken the address of compound market e.g cDAI\n    function enterMarket(address _cToken) external {\n        address[] memory markets = new address[](1);\n        markets[0] = _cToken; \n        uint[] memory results = comptroller.enterMarkets(markets);\n        require(\n            results[0] == 0, \n            'comptroller#enterMarket() failed. see Compound ErrorReporter.sol for details'\n        ); \n    }\n\n    /// @notice function to borrow from a specific cToken market\n    /// @param _cToken the address of compound market e.g cDAI\n    /// @param _borrowAmount the amount of the underlying to borrow\n    function borrow(address _cToken, uint _borrowAmount) external {\n        ICToken cToken = ICToken(_cToken);\n        address underlyingAddress = cToken.underlying(); \n        uint result = cToken.borrow(_borrowAmount);\n        require(\n            result == 0, \n            'cToken#borrow() failed. see Compound ErrorReporter.sol for details'\n        ); \n    }\n    \n    /// @notice function to repay amount of underlying \n    /// @param _cToken the address of compound market e.g cDAI\n    /// @param _underlyingAmount the amount of the underlying to repay\n    function repayBorrow(address _cToken, uint _underlyingAmount) external {\n        ICToken cToken = ICToken(_cToken);\n        address underlyingAddress = cToken.underlying(); \n        // approve market to move underlying on your behalf\n        IERC20(underlyingAddress).approve(_cToken, _underlyingAmount);\n        uint result = cToken.repayBorrow(_underlyingAmount);\n        require(\n            result == 0, \n            'cToken#borrow() failed. see Compound ErrorReporter.sol for details'\n        ); \n    }\n\n    /// @notice function to get max amount you can borrow\n    /// @param _cToken the address of compound market to borrow underlying e.g cDAI for DAI\n    /// @return _amountMax the max number of tokens of underlying you can borrow from market\n    function getMaxBorrow(address _cToken) external view returns(uint _amountMax) {\n        (uint result, uint liquidity, uint shortfall) = comptroller.getAccountLiquidity(address(this));\n        require(\n            result == 0, \n            'comptroller#getAccountLiquidity() failed. see Compound ErrorReporter.sol for details'\n        ); \n        require(shortfall == 0, 'account underwater');\n        require(liquidity > 0, 'account does not have collateral');\n        uint underlyingPrice = priceOracle.getUnderlyingPrice(_cToken);\n        // return the max amount of underlying that you can borrow\n        _amountMax = liquidity / underlyingPrice;\n    }\n\n\n}",
  "sourcePath": "/Users/zed/Desktop/CompoundDeFI/contracts/DeFiCompound.sol",
  "compiler": {
    "name": "solc",
    "version": "0.8.4+commit.c7e474f2.Emscripten.clang"
  },
  "schemaVersion": "3.3.4",
  "updatedAt": "2021-05-05T07:02:32.325Z",
  "devdoc": {
    "kind": "dev",
    "methods": {
      "borrow(address,uint256)": {
        "params": {
          "_borrowAmount": "the amount of the underlying to borrow",
          "_cToken": "the address of compound market e.g cDAI"
        }
      },
      "enterMarket(address)": {
        "params": {
          "_cToken": "the address of compound market e.g cDAI"
        }
      },
      "getMaxBorrow(address)": {
        "params": {
          "_cToken": "the address of compound market to borrow underlying e.g cDAI for DAI"
        },
        "returns": {
          "_amountMax": "the max number of tokens of underlying you can borrow from market"
        }
      },
      "redeem(address,uint256)": {
        "params": {
          "_amountCToken": "the amount of cTokens to redeem",
          "_cToken": "the address of market to lend eg cDAI"
        }
      },
      "repayBorrow(address,uint256)": {
        "params": {
          "_cToken": "the address of compound market e.g cDAI",
          "_underlyingAmount": "the amount of the underlying to repay"
        }
      },
      "supply(address,uint256)": {
        "params": {
          "_amountUnderlying": "the amount of tokens to lend",
          "_cToken": "the address of market to lend eg cDAI"
        }
      }
    },
    "version": 1
  },
  "userdoc": {
    "kind": "user",
    "methods": {
      "borrow(address,uint256)": {
        "notice": "function to borrow from a specific cToken market"
      },
      "enterMarket(address)": {
        "notice": "function to enter a list of markets "
      },
      "getMaxBorrow(address)": {
        "notice": "function to get max amount you can borrow"
      },
      "redeem(address,uint256)": {
        "notice": "function to redeem underlying by sending back cToken"
      },
      "repayBorrow(address,uint256)": {
        "notice": "function to repay amount of underlying "
      },
      "supply(address,uint256)": {
        "notice": "function to lend money to protocol "
      }
    },
    "version": 1
  }
}